{"abi":[{"type":"constructor","inputs":[{"name":"_name","type":"string","internalType":"string"},{"name":"_symbol","type":"string","internalType":"string"}],"stateMutability":"nonpayable"},{"type":"function","name":"approve","inputs":[{"name":"_approved","type":"address","internalType":"address"},{"name":"_tokenId","type":"uint256","internalType":"uint256"}],"outputs":[],"stateMutability":"payable"},{"type":"function","name":"balanceOf","inputs":[{"name":"_owner","type":"address","internalType":"address"}],"outputs":[{"name":"","type":"uint256","internalType":"uint256"}],"stateMutability":"view"},{"type":"function","name":"create","inputs":[{"name":"_uri","type":"string","internalType":"string"},{"name":"_tokenId","type":"uint256","internalType":"uint256"}],"outputs":[],"stateMutability":"nonpayable"},{"type":"function","name":"destroy","inputs":[{"name":"_tokenId","type":"uint256","internalType":"uint256"}],"outputs":[],"stateMutability":"nonpayable"},{"type":"function","name":"getApproved","inputs":[{"name":"_tokenId","type":"uint256","internalType":"uint256"}],"outputs":[{"name":"","type":"address","internalType":"address"}],"stateMutability":"view"},{"type":"function","name":"isApprovedForAll","inputs":[{"name":"_owner","type":"address","internalType":"address"},{"name":"_operator","type":"address","internalType":"address"}],"outputs":[{"name":"","type":"bool","internalType":"bool"}],"stateMutability":"view"},{"type":"function","name":"name","inputs":[],"outputs":[{"name":"","type":"string","internalType":"string"}],"stateMutability":"view"},{"type":"function","name":"owner","inputs":[],"outputs":[{"name":"","type":"address","internalType":"address"}],"stateMutability":"view"},{"type":"function","name":"ownerOf","inputs":[{"name":"_tokenId","type":"uint256","internalType":"uint256"}],"outputs":[{"name":"","type":"address","internalType":"address"}],"stateMutability":"view"},{"type":"function","name":"safeTransferFrom","inputs":[{"name":"_from","type":"address","internalType":"address"},{"name":"_to","type":"address","internalType":"address"},{"name":"_tokenId","type":"uint256","internalType":"uint256"}],"outputs":[],"stateMutability":"payable"},{"type":"function","name":"safeTransferFrom","inputs":[{"name":"_from","type":"address","internalType":"address"},{"name":"_to","type":"address","internalType":"address"},{"name":"_tokenId","type":"uint256","internalType":"uint256"},{"name":"data","type":"bytes","internalType":"bytes"}],"outputs":[],"stateMutability":"payable"},{"type":"function","name":"setApprovalForAll","inputs":[{"name":"_operator","type":"address","internalType":"address"},{"name":"_approved","type":"bool","internalType":"bool"}],"outputs":[],"stateMutability":"nonpayable"},{"type":"function","name":"supportsInterface","inputs":[{"name":"interfaceID","type":"bytes4","internalType":"bytes4"}],"outputs":[{"name":"","type":"bool","internalType":"bool"}],"stateMutability":"view"},{"type":"function","name":"symbol","inputs":[],"outputs":[{"name":"","type":"string","internalType":"string"}],"stateMutability":"view"},{"type":"function","name":"tokenByIndex","inputs":[{"name":"_index","type":"uint256","internalType":"uint256"}],"outputs":[{"name":"","type":"uint256","internalType":"uint256"}],"stateMutability":"view"},{"type":"function","name":"tokenOfOwnerByIndex","inputs":[{"name":"_owner","type":"address","internalType":"address"},{"name":"_index","type":"uint256","internalType":"uint256"}],"outputs":[{"name":"","type":"uint256","internalType":"uint256"}],"stateMutability":"view"},{"type":"function","name":"tokenURI","inputs":[{"name":"_tokenId","type":"uint256","internalType":"uint256"}],"outputs":[{"name":"","type":"string","internalType":"string"}],"stateMutability":"view"},{"type":"function","name":"totalSupply","inputs":[],"outputs":[{"name":"","type":"uint256","internalType":"uint256"}],"stateMutability":"view"},{"type":"function","name":"transferFrom","inputs":[{"name":"_from","type":"address","internalType":"address"},{"name":"_to","type":"address","internalType":"address"},{"name":"_tokenId","type":"uint256","internalType":"uint256"}],"outputs":[],"stateMutability":"payable"},{"type":"event","name":"Approval","inputs":[{"name":"_owner","type":"address","indexed":true,"internalType":"address"},{"name":"_approved","type":"address","indexed":true,"internalType":"address"},{"name":"_tokenId","type":"uint256","indexed":true,"internalType":"uint256"}],"anonymous":false},{"type":"event","name":"ApprovalForAll","inputs":[{"name":"_owner","type":"address","indexed":true,"internalType":"address"},{"name":"_operator","type":"address","indexed":true,"internalType":"address"},{"name":"_approved","type":"bool","indexed":false,"internalType":"bool"}],"anonymous":false},{"type":"event","name":"Transfer","inputs":[{"name":"_from","type":"address","indexed":true,"internalType":"address"},{"name":"_to","type":"address","indexed":true,"internalType":"address"},{"name":"_tokenId","type":"uint256","indexed":true,"internalType":"uint256"}],"anonymous":false},{"type":"error","name":"ERC721IncorrectOwner","inputs":[{"name":"sender","type":"address","internalType":"address"},{"name":"tokenId","type":"uint256","internalType":"uint256"},{"name":"owner","type":"address","internalType":"address"}]},{"type":"error","name":"ERC721InvalidReceiver","inputs":[{"name":"receiver","type":"address","internalType":"address"}]},{"type":"error","name":"ERC721NonexistentToken","inputs":[{"name":"tokenId","type":"uint256","internalType":"uint256"}]}],"bytecode":{"object":"0x608060405234801561001057600080fd5b50604051611a77380380611a7783398101604081905261002f9161012a565b60006009819055600a8190556100458382610218565b5060016100528282610218565b5050600e80546001600160a01b03191633179055506102d7565b634e487b7160e01b600052604160045260246000fd5b600082601f83011261009357600080fd5b81516001600160401b03808211156100ad576100ad61006c565b604051601f8301601f19908116603f011681019082821181831017156100d5576100d561006c565b81604052838152602092508660208588010111156100f257600080fd5b600091505b8382101561011457858201830151818301840152908201906100f7565b6000602085830101528094505050505092915050565b6000806040838503121561013d57600080fd5b82516001600160401b038082111561015457600080fd5b61016086838701610082565b9350602085015191508082111561017657600080fd5b5061018385828601610082565b9150509250929050565b600181811c908216806101a157607f821691505b6020821081036101c157634e487b7160e01b600052602260045260246000fd5b50919050565b601f821115610213576000816000526020600020601f850160051c810160208610156101f05750805b601f850160051c820191505b8181101561020f578281556001016101fc565b5050505b505050565b81516001600160401b038111156102315761023161006c565b6102458161023f845461018d565b846101c7565b602080601f83116001811461027a57600084156102625750858301515b600019600386901b1c1916600185901b17855561020f565b600085815260208120601f198616915b828110156102a95788860151825594840194600190910190840161028a565b50858210156102c75787850151600019600388901b60f8161c191681555b5050505050600190811b01905550565b611791806102e66000396000f3fe6080604052600436106101145760003560e01c80634f6ccce7116100a05780639d118770116100645780639d118770146102d5578063a22cb465146102f5578063b88d4fde14610315578063c87b56dd14610328578063e985e9c51461034857600080fd5b80634f6ccce7146102425780636352211e1461026257806370a08231146102825780638da5cb5b146102a257806395d89b41146102c057600080fd5b806318160ddd116100e757806318160ddd146101bd57806323b872dd146101dc5780632f745c59146101ef57806342842e0e1461020f57806346f81a871461022257600080fd5b806301ffc9a71461011957806306fdde031461014e578063081812fc14610170578063095ea7b3146101a8575b600080fd5b34801561012557600080fd5b50610139610134366004611246565b610391565b60405190151581526020015b60405180910390f35b34801561015a57600080fd5b506101636103bc565b60405161014591906112b0565b34801561017c57600080fd5b5061019061018b3660046112c3565b61044e565b6040516001600160a01b039091168152602001610145565b6101bb6101b63660046112f8565b6104ae565b005b3480156101c957600080fd5b506008545b604051908152602001610145565b6101bb6101ea366004611322565b6105b7565b3480156101fb57600080fd5b506101ce61020a3660046112f8565b6106a1565b6101bb61021d366004611322565b610820565b34801561022e57600080fd5b506101bb61023d3660046113ea565b610932565b34801561024e57600080fd5b506101ce61025d3660046112c3565b610a45565b34801561026e57600080fd5b5061019061027d3660046112c3565b610b14565b34801561028e57600080fd5b506101ce61029d366004611443565b610b66565b3480156102ae57600080fd5b50600e546001600160a01b0316610190565b3480156102cc57600080fd5b50610163610bac565b3480156102e157600080fd5b506101bb6102f03660046112c3565b610bbb565b34801561030157600080fd5b506101bb61031036600461145e565b610c76565b6101bb61032336600461149a565b610d0a565b34801561033457600080fd5b506101636103433660046112c3565b610e0e565b34801561035457600080fd5b50610139610363366004611516565b6001600160a01b03918216600090815260056020908152604080832093909416825291909152205460ff1690565b60006001600160e01b0319821663780e9d6360e01b14806103b657506103b682610eb0565b92915050565b6060600080546103cb90611549565b80601f01602080910402602001604051908101604052809291908181526020018280546103f790611549565b80156104445780601f1061041957610100808354040283529160200191610444565b820191906000526020600020905b81548152906001019060200180831161042757829003601f168201915b5050505050905090565b60008181526004602052604081205482906001600160a01b031661048d57604051637e27328960e01b8152600481018290526024015b60405180910390fd5b6000838152600660205260409020546001600160a01b031691505b50919050565b6000818152600460205260409020546001600160a01b031633148061050457506000818152600460209081526040808320546001600160a01b031683526005825280832033845290915290205460ff1615156001145b6105505760405162461bcd60e51b815260206004820152601a60248201527f6e6f7420616e20617574686f72697a6564206f70657261746f720000000000006044820152606401610484565b600081815260066020908152604080832080546001600160a01b0319166001600160a01b038781169182179092556004909352818420549151859492909116917f8c5be1e5ebec7d5bd14f71427d1e84f3dd0314c0f7b2291e5b200ac8c7c3b92591a45050565b60008181526004602052604090205481906001600160a01b0316331480159061061257506000818152600460209081526040808320546001600160a01b031683526005825280832033845290915290205460ff161515600114155b801561063557506000818152600660205260409020546001600160a01b03163314155b15610680576000818152600460208190526040918290205491516364283d7b60e01b81523391810191909152602481018390526001600160a01b039091166044820152606401610484565b61069b84848460405180602001604052806000815250610f00565b50505050565b6001600160a01b03821660009081526003602052604081205482106107015760405162461bcd60e51b815260206004820152601660248201527534b73b30b634b21034b73232bc1037b31037bbb732b960511b6044820152606401610484565b6001600160a01b0383166000818152600d602090815260408083208151606080820184528254825260018084015483870190815260029485015484870152888852600c8752858820905188528652848720855192830186528054835280820154838801529093015481850152958552600390935290832054919392916107879190611593565b90505b848111156107ed576001600160a01b0386166000908152600c6020908152604080832094518352938152908390208351606081018552815481526001820154928101929092526002015492810192909252806107e5816115a6565b91505061078a565b506001600160a01b0385166000908152600c60209081526040808320938201518352929052206001015491505092915050565b60008181526004602052604090205481906001600160a01b0316331480159061087b57506000818152600460209081526040808320546001600160a01b031683526005825280832033845290915290205460ff161515600114155b801561089e57506000818152600660205260409020546001600160a01b03163314155b156108e9576000818152600460208190526040918290205491516364283d7b60e01b81523391810191909152602481018390526001600160a01b039091166044820152606401610484565b826001600160a01b0381166109105760405162461bcd60e51b8152600401610484906115bd565b61092b85858560405180602001604052806000815250610f00565b5050505050565b6000818152600460205260409020546001600160a01b0316156109875760405162461bcd60e51b815260206004820152600d60248201526c1d1bdad95b8818dc99585d1959609a1b6044820152606401610484565b806000036109ca5760405162461bcd60e51b815260206004820152601060248201526f1a5b9d985b1a59081d1bdad95b881a5960821b6044820152606401610484565b6001600860008282546109dd91906115e6565b90915550506000818152600760209081526040808320600a805480835560018301878155600991909155549055600280820154600b55909252909120610a238482611641565b50610a406000338460405180602001604052806000815250610f00565b505050565b6000816008548110610a5657600080fd5b600a5460009081526007602090815260408083208151606081018352815481526001828101549482019490945260029091015491810191909152600854909291610a9f91611593565b90505b84811115610af457905160009081526007602090815260409182902082516060810184528154815260018201549281019290925260020154918101919091529080610aec816115a6565b915050610aa2565b506020908101516000908152600790915260409020600101549392505050565b6000818152600460205260408120546001600160a01b031680610b495760405162461bcd60e51b8152600401610484906115bd565b50506000908152600460205260409020546001600160a01b031690565b6000816001600160a01b038116610b8f5760405162461bcd60e51b8152600401610484906115bd565b50506001600160a01b031660009081526003602052604090205490565b6060600180546103cb90611549565b6000818152600460205260409020546001600160a01b03163314610c215760405162461bcd60e51b815260206004820152601d60248201527f6f6e6c79206f776e6572206f66206e66742063616e2064657374726f790000006044820152606401610484565b600081815260046020526040812080546001600160a01b03191690556008805460019290610c50908490611593565b92505081905550610c733360008360405180602001604052806000815250610f00565b50565b816001600160a01b038116610c9d5760405162461bcd60e51b8152600401610484906115bd565b3360008181526005602090815260408083206001600160a01b03881680855290835292819020805460ff191687151590811790915590519081529192917f17307eab39ab6107e8899845ad3d59bd9653f200f220920489ca2b5937696c31910160405180910390a3505050565b60008281526004602052604090205482906001600160a01b03163314801590610d6557506000818152600460209081526040808320546001600160a01b031683526005825280832033845290915290205460ff161515600114155b8015610d8857506000818152600660205260409020546001600160a01b03163314155b15610dd3576000818152600460208190526040918290205491516364283d7b60e01b81523391810191909152602481018390526001600160a01b039091166044820152606401610484565b836001600160a01b038116610dfa5760405162461bcd60e51b8152600401610484906115bd565b610e0686868686610f00565b505050505050565b6000818152600260205260409020805460609190610e2b90611549565b80601f0160208091040260200160405190810160405280929190818152602001828054610e5790611549565b8015610ea45780601f10610e7957610100808354040283529160200191610ea4565b820191906000526020600020905b815481529060010190602001808311610e8757829003601f168201915b50505050509050919050565b60006001600160e01b031982166380ac58cd60e01b1480610ee157506001600160e01b03198216635b5e139f60e01b145b806103b657506301ffc9a760e01b6001600160e01b03198316146103b6565b610f0c84848484611030565b6001600160a01b038085166000908152600c6020908152604080832086845290915281208181556001810182905560020155831615610f9c576001600160a01b0383166000818152600c602090815260408083208684528252808320938352600d90915290206002808201858155600180850187815590840180548087559094555490925590910154905561069b565b6001600160a01b0384166000908152600c60209081526040808320600d835281842080548552908352818420600291820154855282852060018082015484840155918201549055868552828520858155808201869055820185905560095485526007909352818420600b5485528285208085015482840155908401549055858452908320838155918201839055015561069b565b600082815260046020526040902080546001600160a01b0319166001600160a01b0385169081179091551561108e576001600160a01b03831660009081526003602052604081208054600192906110889084906115e6565b90915550505b6001600160a01b038416156110cc576001600160a01b03841660009081526003602052604081208054600192906110c6908490611593565b90915550505b81836001600160a01b0316856001600160a01b03167fddf252ad1be2c89b69c2b068fc378daa952ba7f163c4a11628f55a4df523b3ef60405160405180910390a461069b848484846000833b131561069b57604051630a85bd0160e11b81526001600160a01b0384169063150b7a0290611150903390889087908790600401611701565b6020604051808303816000875af192505050801561118b575060408051601f3d908101601f191682019092526111889181019061173e565b60015b6111f4573d8080156111b9576040519150601f19603f3d011682016040523d82523d6000602084013e6111be565b606091505b5080516000036111ec57604051633250574960e11b81526001600160a01b0385166004820152602401610484565b805181602001fd5b6001600160e01b03198116630a85bd0160e11b1461092b57604051633250574960e11b81526001600160a01b0385166004820152602401610484565b6001600160e01b031981168114610c7357600080fd5b60006020828403121561125857600080fd5b813561126381611230565b9392505050565b6000815180845260005b8181101561129057602081850181015186830182015201611274565b506000602082860101526020601f19601f83011685010191505092915050565b602081526000611263602083018461126a565b6000602082840312156112d557600080fd5b5035919050565b80356001600160a01b03811681146112f357600080fd5b919050565b6000806040838503121561130b57600080fd5b611314836112dc565b946020939093013593505050565b60008060006060848603121561133757600080fd5b611340846112dc565b925061134e602085016112dc565b9150604084013590509250925092565b634e487b7160e01b600052604160045260246000fd5b600067ffffffffffffffff8084111561138f5761138f61135e565b604051601f8501601f19908116603f011681019082821181831017156113b7576113b761135e565b816040528093508581528686860111156113d057600080fd5b858560208301376000602087830101525050509392505050565b600080604083850312156113fd57600080fd5b823567ffffffffffffffff81111561141457600080fd5b8301601f8101851361142557600080fd5b61143485823560208401611374565b95602094909401359450505050565b60006020828403121561145557600080fd5b611263826112dc565b6000806040838503121561147157600080fd5b61147a836112dc565b91506020830135801515811461148f57600080fd5b809150509250929050565b600080600080608085870312156114b057600080fd5b6114b9856112dc565b93506114c7602086016112dc565b925060408501359150606085013567ffffffffffffffff8111156114ea57600080fd5b8501601f810187136114fb57600080fd5b61150a87823560208401611374565b91505092959194509250565b6000806040838503121561152957600080fd5b611532836112dc565b9150611540602084016112dc565b90509250929050565b600181811c9082168061155d57607f821691505b6020821081036104a857634e487b7160e01b600052602260045260246000fd5b634e487b7160e01b600052601160045260246000fd5b818103818111156103b6576103b661157d565b6000816115b5576115b561157d565b506000190190565b6020808252600f908201526e696e76616c6964206164647265737360881b604082015260600190565b808201808211156103b6576103b661157d565b601f821115610a40576000816000526020600020601f850160051c810160208610156116225750805b601f850160051c820191505b81811015610e065782815560010161162e565b815167ffffffffffffffff81111561165b5761165b61135e565b61166f816116698454611549565b846115f9565b602080601f8311600181146116a4576000841561168c5750858301515b600019600386901b1c1916600185901b178555610e06565b600085815260208120601f198616915b828110156116d3578886015182559484019460019091019084016116b4565b50858210156116f15787850151600019600388901b60f8161c191681555b5050505050600190811b01905550565b6001600160a01b03858116825284166020820152604081018390526080606082018190526000906117349083018461126a565b9695505050505050565b60006020828403121561175057600080fd5b81516112638161123056fea26469706673582212207be9e83743a9764e5417f3241e12758c84317b5b01003fbd67c9eb0e8b15a92664736f6c63430008190033","linkReferences":{}},"methodIdentifiers":{"approve(address,uint256)":"095ea7b3","balanceOf(address)":"70a08231","create(string,uint256)":"46f81a87","destroy(uint256)":"9d118770","getApproved(uint256)":"081812fc","isApprovedForAll(address,address)":"e985e9c5","name()":"06fdde03","owner()":"8da5cb5b","ownerOf(uint256)":"6352211e","safeTransferFrom(address,address,uint256)":"42842e0e","safeTransferFrom(address,address,uint256,bytes)":"b88d4fde","setApprovalForAll(address,bool)":"a22cb465","supportsInterface(bytes4)":"01ffc9a7","symbol()":"95d89b41","tokenByIndex(uint256)":"4f6ccce7","tokenOfOwnerByIndex(address,uint256)":"2f745c59","tokenURI(uint256)":"c87b56dd","totalSupply()":"18160ddd","transferFrom(address,address,uint256)":"23b872dd"},"id":23}